:020000020000FC
:1000000076C046C054C0189518951895189518953F
:100010001895189508C0189518951895189518955D
:100020001895189518950F930FB70F93969A0CB5CE
:100030006DB50317640710F4302F462F0ED02EBC79
:100040000F910FBF0F91189501B1036001B908B16D
:10005000036008B9077F08B9089508B1077F08B998
:10006000089508B1086008B908952FBC2EBC22BCC1
:10007000089501E022BA01BB0CEF28BA07BB8E9AA3
:10008000089505B7056005BF0BB700640BBF089561
:100090000F930FB70F935395112722273FEF4FEF81
:1000A0000BB700680BBF0F910FBF0F9118950F93FF
:1000B0000FB70F9301E0100F221D06E9101700E0A3
:1000C000200788F00AEF101700E0200738F42CBC56
:1000D0002DBC01E00EBDC5DF51E005C0077F08B9AA
:1000E0000BB70F770BBF0F910FBF0F911895F894B7
:1000F000AA27BB27CC27DD27EE27FF272224552759
:100100000FED0DBFB6DFBDDFB0DF9EDF789485E079
:10011000A8958A955523E1F3552700ED0000A89591
:100120000A95E1F79ADF2EBC96980AEF101700E0C7
:10013000200770F3112722270E2F6F2F0C0F6D1F32
:100140000A0F6B1F030F641F669507956695079549
:100150006695079566950795EF93FF93E0EAF2E0C1
:100160007727739565910617E1F77A95E0EAF1E054
:10017000E70FF21D049168B363700C7F602B68BBBE
:1001800062B304916E7F02700695600F62BBFF91AF
:10019000EF91AC2FBD2FCE2FDF2FE32FF42FB8CF51
:1001A000000102030405060708090A0B0C0D0E0FD7
:1001B000101112131415161718191A1B1C1D1E1FC7
:1001C000202122232425262728292A2B2C2D2E2FB7
:1001D000303132333435363738393A3B3C3D3E3FA7
:1001E000404142434445464748494A4B4C4D4E4F97
:1001F000505152535455565758595A5B5C5D5E5F87
:10020000606162636465666768696A6B6C6D6E6F76
:10021000707172737475767778797A7B7C7D7E7F66
:10022000808182838485868788898A8B8C8D8E8F56
:10023000909192939495969798999A9B9C9D9E9F46
:10024000A0A1A2A3A4A5A6A7A8A9AAABACADAEAF36
:10025000B0B1B2B3B4B5B6B7B8B9BABBBCBDBEBF26
:10026000C0C1C2C3C4C5C6C7C8C9CACBCCCDCECF16
:10027000D0D1D2D3D4D5D6D7D8D9DADBDCDDDEDF06
:10028000E0E1E2E3E4E5E6E7E8E9EAEBECEDEEEFF6
:10029000F0F1F2F3F4F5F6F7F8F9FAFBFCFDFEFFE6
:1002A000000102030405060708090A0B0C0D0E0FD6
:1002B000101112131415161718191A1B1C1D1E1FC6
:1002C000202122232425262728292A2B2C2D2E2FB6
:1002D000303132333435363738393A3B3C3D3E3FA6
:1002E000404142434445464748494A4B4C4D4E4F96
:1002F000505152535455565758595A5B5C5D5E5F86
:10030000606162636465666768696A6B6C6D6E6F75
:10031000707172737475767778797A7B7C7D7E7F65
:10032000808182838485868788898A8B8C8D8E8F55
:10033000909192939495969798999A9B9C9D9E9F45
:10034000A0A1A2A3A4A5A6A7A8A9AAABACADAEAF35
:10035000B0B1B2B3B4B5B6B7B8B9BABBBCBDBEBF25
:10036000C0C1C2C3C4C5C6C7C8C9CACBCCCDCECF15
:10037000D0D1D2D3D4D5D6D7D8D9DADBDCDDDEDF05
:10038000E0E1E2E3E4E5E6E7E8E9EAEBECEDEEEFF5
:10039000F0F1F2F3F4F5F6F7F8F9FAFBFCFDFEFFE5
:00000001FF
