:020000020000FC
:1000000082C052C060C0189518951895189518951B
:100010001895189508C0189518951895189518955D
:100020001895189518950F930FB70F93969A0CB5CE
:100030006DB50317640710F4302F462F0ED02EBC79
:100040000F910FBF0F91189501B1036001B908B16D
:10005000036008B9077F08B9089508B1077F08B998
:10006000089508B1086008B9089503E400BF0CE0E2
:1000700003BF05E006BF08952FBC2EBC22BC089527
:10008000969B02C096980895969A089522BA21BA2E
:1000900028BA27BA8E9ABA9A089505B7056005BF9F
:1000A0000BB700640BBF08950F930FB70F935395D1
:1000B000112722273FEF4FEF0BB700680BBF0F91BF
:1000C0000FBF0F9118950F930FB70F9301E0100F0B
:1000D000221D06E9101700E0200788F00AEF10172C
:1000E00000E0200738F42CBC2DBC01E00EBDB9DFC8
:1000F00051E005C0077F08B90BB70F770BBF0F9111
:100100000FBF0F911895F894AA27BB27CC27DD279E
:10011000EE27FF27222455270FED0DBFB7DFBDDFE8
:10012000ABDFA3DF91DF789485E0A8958A9555230E
:10013000E1F3552700ED0000A8950A95E1F78DDF62
:100140002EBC96980AEF101700E0200770F31127D5
:100150002227843030F4833038F4823040F488230E
:1001600049F0A32FB42F06C0C32FD42F03C0E32F11
:10017000F42F00C085E0EC0FFD1FEA0FFB1FE30F1B
:10018000F41FF695E795F695E795F695E795F695BC
:10019000E7950E2FECEAF2E0772773956591061745
:1001A000E1F77A95E2EBF1E0E70FF21D049106BF6B
:1001B000BCCF14141414141414141414141414149C
:1001C00014141414141414141414141414141414EF
:1001D000141414141414141414111316181A1D1FC3
:1001E00021232527292B2D2F31333537393A3C3E12
:1001F000404143454648494B4C4E4F515254555649
:1002000058595A5C5D5E5F61626364656667696ADE
:100210006B6C6D6E6F7071727374747576777879BC
:100220007A7A7B7C7D7E7E7F8081818283838485D8
:10023000858687878888898A8A8B8B8C8C8D8E8E21
:100240008F8F90909191919292939394949595958C
:10025000969697979798989899999A9A9A9B9B9B14
:100260009C9C9C9C9D9D9D9E9E9E9E9F9F9FA0A0B2
:10027000A0A0A1A1A1A1A1A2A2A0A0A0A0A0A0A075
:10028000A0A0A0A0A0A0A0A0A0A0A0A0A0A0A0A06E
:10029000A0A0A0A0A0A0A0A0A0A0A0A0A0A0A0A05E
:1002A000A0A0A0A0A0A0A0A0A0A0A0A000010203C8
:1002B0000405060708090A0B0C0D0E0F1011121386
:1002C0001415161718191A1B1C1D1E1F2021222376
:1002D0002425262728292A2B2C2D2E2F3031323366
:1002E0003435363738393A3B3C3D3E3F4041424356
:1002F0004445464748494A4B4C4D4E4F5051525346
:100300005455565758595A5B5C5D5E5F6061626335
:100310006465666768696A6B6C6D6E6F7071727325
:100320007475767778797A7B7C7D7E7F8081828315
:100330008485868788898A8B8C8D8E8F9091929305
:100340009495969798999A9B9C9D9E9FA0A1A2A3F5
:10035000A4A5A6A7A8A9AAABACADAEAFB0B1B2B3E5
:10036000B4B5B6B7B8B9BABBBCBDBEBFC0C1C2C3D5
:10037000C4C5C6C7C8C9CACBCCCDCECFD0D1D2D3C5
:10038000D4D5D6D7D8D9DADBDCDDDEDFE0E1E2E3B5
:10039000E4E5E6E7E8E9EAEBECEDEEEFF0F1F2F3A5
:0803A000F4F5F6F7F8F9FA0094
:00000001FF
